{
  "contractName": "Registry",
  "abi": [
    {
      "anonymous": false,
      "inputs": [
        {
          "indexed": false,
          "name": "did",
          "type": "bytes32"
        },
        {
          "indexed": false,
          "name": "timestamp",
          "type": "uint256"
        }
      ],
      "name": "Updated",
      "type": "event"
    },
    {
      "constant": false,
      "inputs": [
        {
          "name": "did",
          "type": "bytes32"
        },
        {
          "name": "owner",
          "type": "bytes"
        },
        {
          "name": "servicesHash",
          "type": "string"
        }
      ],
      "name": "setIdentity",
      "outputs": [],
      "payable": false,
      "stateMutability": "nonpayable",
      "type": "function"
    },
    {
      "constant": false,
      "inputs": [
        {
          "name": "did",
          "type": "bytes32"
        },
        {
          "name": "recovery",
          "type": "bytes"
        }
      ],
      "name": "setRecovery",
      "outputs": [],
      "payable": false,
      "stateMutability": "nonpayable",
      "type": "function"
    },
    {
      "constant": true,
      "inputs": [
        {
          "name": "did",
          "type": "bytes32"
        }
      ],
      "name": "getIdentity",
      "outputs": [
        {
          "name": "",
          "type": "bytes"
        },
        {
          "name": "",
          "type": "bytes"
        },
        {
          "name": "",
          "type": "string"
        }
      ],
      "payable": false,
      "stateMutability": "view",
      "type": "function"
    }
  ],
  "bytecode": "0x608060405234801561001057600080fd5b50610f88806100206000396000f3fe608060405234801561001057600080fd5b50600436106100415760003560e01c806309737f70146100465780636d4b45c91461010b578063a786721214610267575b600080fd5b6101096004803603604081101561005c57600080fd5b81019080803590602001909291908035906020019064010000000081111561008357600080fd5b82018360208201111561009557600080fd5b803590602001918460018302840111640100000000831117156100b757600080fd5b91908080601f016020809104026020016040519081016040528093929190818152602001838380828437600081840152601f19601f8201169050808301925050505050505091929192905050506103e6565b005b6102656004803603606081101561012157600080fd5b81019080803590602001909291908035906020019064010000000081111561014857600080fd5b82018360208201111561015a57600080fd5b8035906020019184600183028401116401000000008311171561017c57600080fd5b91908080601f016020809104026020016040519081016040528093929190818152602001838380828437600081840152601f19601f820116905080830192505050505050509192919290803590602001906401000000008111156101df57600080fd5b8201836020820111156101f157600080fd5b8035906020019184600183028401116401000000008311171561021357600080fd5b91908080601f016020809104026020016040519081016040528093929190818152602001838380828437600081840152601f19601f820116905080830192505050505050509192919290505050610617565b005b6102936004803603602081101561027d57600080fd5b8101908080359060200190929190505050610ae5565b60405180806020018060200180602001848103845287818151815260200191508051906020019080838360005b838110156102db5780820151818401526020810190506102c0565b50505050905090810190601f1680156103085780820380516001836020036101000a031916815260200191505b50848103835286818151815260200191508051906020019080838360005b83811015610341578082015181840152602081019050610326565b50505050905090810190601f16801561036e5780820380516001836020036101000a031916815260200191505b50848103825285818151815260200191508051906020019080838360005b838110156103a757808201518184015260208101905061038c565b50505050905090810190601f1680156103d45780820380516001836020036101000a031916815260200191505b50965050505050505060405180910390f35b81600061049f6000808481526020019081526020016000206000018054600181600116156101000203166002900480601f0160208091040260200160405190810160405280929190818152602001828054600181600116156101000203166002900480156104955780601f1061046a57610100808354040283529160200191610495565b820191906000526020600020905b81548152906001019060200180831161047857829003601f168201915b5050505050610d0a565b90508073ffffffffffffffffffffffffffffffffffffffff163373ffffffffffffffffffffffffffffffffffffffff1614610542576040517f08c379a00000000000000000000000000000000000000000000000000000000081526004018080602001828103825260198152602001807f53656e646572206973206e6f7420617574686f72697a65642e0000000000000081525060200191505060405180910390fd5b6000806000848152602001908152602001600020600101805460018160011615610100020316600290049050146105e1576040517f08c379a000000000000000000000000000000000000000000000000000000000815260040180806020018281038252601c8152602001807f5265636f766572792063616e206e6f74206265206368616e6765642e0000000081525060200191505060405180910390fd5b600080600086815260200190815260200160002090508381600101908051906020019061060f929190610dae565b505050505050565b60006106cf6000808681526020019081526020016000206000018054600181600116156101000203166002900480601f0160208091040260200160405190810160405280929190818152602001828054600181600116156101000203166002900480156106c55780601f1061069a576101008083540402835291602001916106c5565b820191906000526020600020905b8154815290600101906020018083116106a857829003601f168201915b5050505050610d0a565b905060006107896000808781526020019081526020016000206001018054600181600116156101000203166002900480601f01602080910402602001604051908101604052809291908181526020018280546001816001161561010002031660029004801561077f5780601f106107545761010080835404028352916020019161077f565b820191906000526020600020905b81548152906001019060200180831161076257829003601f168201915b5050505050610d0a565b90507f7728b8ceaea640b6dec503113c7cc2965223b0d18e27b29da53d41a0916e30528542604051808381526020018281526020019250505060405180910390a1600073ffffffffffffffffffffffffffffffffffffffff168273ffffffffffffffffffffffffffffffffffffffff16146108da578073ffffffffffffffffffffffffffffffffffffffff163373ffffffffffffffffffffffffffffffffffffffff161415801561086657508173ffffffffffffffffffffffffffffffffffffffff163373ffffffffffffffffffffffffffffffffffffffff1614155b156108d9576040517f08c379a00000000000000000000000000000000000000000000000000000000081526004018080602001828103825260198152602001807f53656e646572206973206e6f7420617574686f72697a65642e0000000000000081525060200191505060405180910390fd5b5b8073ffffffffffffffffffffffffffffffffffffffff163373ffffffffffffffffffffffffffffffffffffffff1614156109a9576040518060600160405280858152602001604051806020016040528060008152508152602001848152506000808781526020019081526020016000206000820151816000019080519060200190610966929190610e2e565b506020820151816001019080519060200190610983929190610e2e565b5060408201518160020190805190602001906109a0929190610eae565b50905050610ade565b60405180606001604052808581526020016000808881526020019081526020016000206001018054600181600116156101000203166002900480601f016020809104026020016040519081016040528092919081815260200182805460018160011615610100020316600290048015610a635780601f10610a3857610100808354040283529160200191610a63565b820191906000526020600020905b815481529060010190602001808311610a4657829003601f168201915b50505050508152602001848152506000808781526020019081526020016000206000820151816000019080519060200190610a9f929190610e2e565b506020820151816001019080519060200190610abc929190610e2e565b506040820151816002019080519060200190610ad9929190610eae565b509050505b5050505050565b6060806060600080858152602001908152602001600020600001600080868152602001908152602001600020600101600080878152602001908152602001600020600201828054600181600116156101000203166002900480601f016020809104026020016040519081016040528092919081815260200182805460018160011615610100020316600290048015610bbe5780601f10610b9357610100808354040283529160200191610bbe565b820191906000526020600020905b815481529060010190602001808311610ba157829003601f168201915b50505050509250818054600181600116156101000203166002900480601f016020809104026020016040519081016040528092919081815260200182805460018160011615610100020316600290048015610c5a5780601f10610c2f57610100808354040283529160200191610c5a565b820191906000526020600020905b815481529060010190602001808311610c3d57829003601f168201915b50505050509150808054600181600116156101000203166002900480601f016020809104026020016040519081016040528092919081815260200182805460018160011615610100020316600290048015610cf65780601f10610ccb57610100808354040283529160200191610cf6565b820191906000526020600020905b815481529060010190602001808311610cd957829003601f168201915b505050505090509250925092509193909250565b60008082511415610d1e5760009050610da9565b6040825114610d95576040517f08c379a000000000000000000000000000000000000000000000000000000000815260040180806020018281038252601d8152602001807f7075626c6963206b6579206d757374206861766520363420627974657300000081525060200191505060405180910390fd5b818051906020012060001c60601b60601c90505b919050565b828054600181600116156101000203166002900490600052602060002090601f016020900481019282601f10610def57805160ff1916838001178555610e1d565b82800160010185558215610e1d579182015b82811115610e1c578251825591602001919060010190610e01565b5b509050610e2a9190610f2e565b5090565b828054600181600116156101000203166002900490600052602060002090601f016020900481019282601f10610e6f57805160ff1916838001178555610e9d565b82800160010185558215610e9d579182015b82811115610e9c578251825591602001919060010190610e81565b5b509050610eaa9190610f2e565b5090565b828054600181600116156101000203166002900490600052602060002090601f016020900481019282601f10610eef57805160ff1916838001178555610f1d565b82800160010185558215610f1d579182015b82811115610f1c578251825591602001919060010190610f01565b5b509050610f2a9190610f2e565b5090565b610f5091905b80821115610f4c576000816000905550600101610f34565b5090565b9056fea265627a7a72305820c49f0bd5c04e1e2433c484482ecdba7eaf9634cde84dc0c843de63be53830bd664736f6c634300050a0032",
  "source": "pragma solidity ^0.5.1;\n\ncontract Registry {\n    event Updated (\n        bytes32 did,\n        uint timestamp\n    );\n\n    struct Record {\n        bytes owner;\n        bytes recovery;\n        string servicesHash;\n    }\n\n    mapping(bytes32 => Record) private didRegistry;\n\n    modifier onlyOwnerWithoutRecovery(bytes32 did) {\n        address ownerAddress = pubKeyToAddress(didRegistry[did].owner);\n        if (msg.sender != ownerAddress)\n            revert(\"Sender is not authorized.\");\n        if (didRegistry[did].recovery.length != 0)\n            revert(\"Recovery can not be changed.\");\n        _;\n    }\n\n    function setIdentity(bytes32 did, bytes memory owner, string memory servicesHash) public {\n        address ownerAddress = pubKeyToAddress(didRegistry[did].owner);\n        address recoveryAddress = pubKeyToAddress(didRegistry[did].recovery);\n        emit Updated(did, now);\n        if (ownerAddress != address(0)) {\n            if (msg.sender != recoveryAddress && msg.sender != ownerAddress) {\n                revert(\"Sender is not authorized.\");\n            }\n        }\n        if (msg.sender == recoveryAddress) {\n            didRegistry[did] = Record(owner, \"\", servicesHash);\n        } else {\n            didRegistry[did] = Record(owner, didRegistry[did].recovery, servicesHash);\n        }\n    }\n\n    function setRecovery(bytes32 did, bytes memory recovery) public onlyOwnerWithoutRecovery(did) {\n        Record storage record = didRegistry[did];\n        record.recovery = recovery;\n    }\n\n    function getIdentity(bytes32 did) public view returns (bytes memory, bytes memory, string memory) {\n        return (didRegistry[did].owner, didRegistry[did].recovery, didRegistry[did].servicesHash);\n    }\n\n    function pubKeyToAddress(bytes memory publicKey) internal pure returns (address) {\n        if (publicKey.length == 0)\n            return address(0);\n        require (publicKey.length == 64, \"public key must have 64 bytes\");\n        return address(bytes20(uint160(uint256(keccak256(publicKey)))));\n    }\n\n}\n",
  "sourcePath": "/home/volker/Projects/registry-contract/contracts/Registry.sol",
  "compiler": {
    "name": "solc",
    "version": "0.5.10+commit.5a6ea5b1.Emscripten.clang"
  },
  "schemaVersion": "3.0.11",
  "updatedAt": "2019-07-09T08:39:59.209Z",
  "devdoc": {
    "methods": {}
  },
  "userdoc": {
    "methods": {}
  }
}