{
  "contractName": "Registry",
  "abi": [
    {
      "constant": false,
      "inputs": [
        {
          "name": "did",
          "type": "bytes32"
        },
        {
          "name": "owner",
          "type": "bytes"
        },
        {
          "name": "servicesHash",
          "type": "string"
        }
      ],
      "name": "setIdentity",
      "outputs": [],
      "payable": false,
      "stateMutability": "nonpayable",
      "type": "function"
    },
    {
      "constant": false,
      "inputs": [
        {
          "name": "did",
          "type": "bytes32"
        },
        {
          "name": "recovery",
          "type": "bytes"
        }
      ],
      "name": "setRecovery",
      "outputs": [],
      "payable": false,
      "stateMutability": "nonpayable",
      "type": "function"
    },
    {
      "constant": true,
      "inputs": [
        {
          "name": "did",
          "type": "bytes32"
        }
      ],
      "name": "getIdentity",
      "outputs": [
        {
          "name": "",
          "type": "bytes"
        },
        {
          "name": "",
          "type": "bytes"
        },
        {
          "name": "",
          "type": "string"
        }
      ],
      "payable": false,
      "stateMutability": "view",
      "type": "function"
    },
    {
      "constant": true,
      "inputs": [
        {
          "name": "publicKey",
          "type": "bytes"
        }
      ],
      "name": "pubKeyToAddress",
      "outputs": [
        {
          "name": "",
          "type": "address"
        }
      ],
      "payable": false,
      "stateMutability": "pure",
      "type": "function"
    }
  ],
  "bytecode": "0x608060405234801561001057600080fd5b50610f09806100206000396000f3fe608060405234801561001057600080fd5b506004361061005e576000357c01000000000000000000000000000000000000000000000000000000009004806309737f70146100635780636d4b45c914610128578063a786721214610284575b600080fd5b6101266004803603604081101561007957600080fd5b8101908080359060200190929190803590602001906401000000008111156100a057600080fd5b8201836020820111156100b257600080fd5b803590602001918460018302840111640100000000831117156100d457600080fd5b91908080601f016020809104026020016040519081016040528093929190818152602001838380828437600081840152601f19601f820116905080830192505050505050509192919290505050610403565b005b6102826004803603606081101561013e57600080fd5b81019080803590602001909291908035906020019064010000000081111561016557600080fd5b82018360208201111561017757600080fd5b8035906020019184600183028401116401000000008311171561019957600080fd5b91908080601f016020809104026020016040519081016040528093929190818152602001838380828437600081840152601f19601f820116905080830192505050505050509192919290803590602001906401000000008111156101fc57600080fd5b82018360208201111561020e57600080fd5b8035906020019184600183028401116401000000008311171561023057600080fd5b91908080601f016020809104026020016040519081016040528093929190818152602001838380828437600081840152601f19601f820116905080830192505050505050509192919290505050610634565b005b6102b06004803603602081101561029a57600080fd5b8101908080359060200190929190505050610ac3565b60405180806020018060200180602001848103845287818151815260200191508051906020019080838360005b838110156102f85780820151818401526020810190506102dd565b50505050905090810190601f1680156103255780820380516001836020036101000a031916815260200191505b50848103835286818151815260200191508051906020019080838360005b8381101561035e578082015181840152602081019050610343565b50505050905090810190601f16801561038b5780820380516001836020036101000a031916815260200191505b50848103825285818151815260200191508051906020019080838360005b838110156103c45780820151818401526020810190506103a9565b50505050905090810190601f1680156103f15780820380516001836020036101000a031916815260200191505b50965050505050505060405180910390f35b8160006104bc6000808481526020019081526020016000206000018054600181600116156101000203166002900480601f0160208091040260200160405190810160405280929190818152602001828054600181600116156101000203166002900480156104b25780601f10610487576101008083540402835291602001916104b2565b820191906000526020600020905b81548152906001019060200180831161049557829003601f168201915b5050505050610ce8565b90508073ffffffffffffffffffffffffffffffffffffffff163373ffffffffffffffffffffffffffffffffffffffff161461055f576040517f08c379a00000000000000000000000000000000000000000000000000000000081526004018080602001828103825260198152602001807f53656e646572206973206e6f7420617574686f72697a65642e0000000000000081525060200191505060405180910390fd5b6000806000848152602001908152602001600020600101805460018160011615610100020316600290049050146105fe576040517f08c379a000000000000000000000000000000000000000000000000000000000815260040180806020018281038252601c8152602001807f5265636f766572792063616e206e6f74206265206368616e6765642e0000000081525060200191505060405180910390fd5b600080600086815260200190815260200160002090508381600101908051906020019061062c929190610d2f565b505050505050565b60006106ec6000808681526020019081526020016000206000018054600181600116156101000203166002900480601f0160208091040260200160405190810160405280929190818152602001828054600181600116156101000203166002900480156106e25780601f106106b7576101008083540402835291602001916106e2565b820191906000526020600020905b8154815290600101906020018083116106c557829003601f168201915b5050505050610ce8565b905060006107a66000808781526020019081526020016000206001018054600181600116156101000203166002900480601f01602080910402602001604051908101604052809291908181526020018280546001816001161561010002031660029004801561079c5780601f106107715761010080835404028352916020019161079c565b820191906000526020600020905b81548152906001019060200180831161077f57829003601f168201915b5050505050610ce8565b9050600073ffffffffffffffffffffffffffffffffffffffff168273ffffffffffffffffffffffffffffffffffffffff16146108b8578073ffffffffffffffffffffffffffffffffffffffff163373ffffffffffffffffffffffffffffffffffffffff161415801561084457508173ffffffffffffffffffffffffffffffffffffffff163373ffffffffffffffffffffffffffffffffffffffff1614155b156108b7576040517f08c379a00000000000000000000000000000000000000000000000000000000081526004018080602001828103825260198152602001807f53656e646572206973206e6f7420617574686f72697a65642e0000000000000081525060200191505060405180910390fd5b5b8073ffffffffffffffffffffffffffffffffffffffff163373ffffffffffffffffffffffffffffffffffffffff161415610987576040518060600160405280858152602001604051806020016040528060008152508152602001848152506000808781526020019081526020016000206000820151816000019080519060200190610944929190610daf565b506020820151816001019080519060200190610961929190610daf565b50604082015181600201908051906020019061097e929190610e2f565b50905050610abc565b60405180606001604052808581526020016000808881526020019081526020016000206001018054600181600116156101000203166002900480601f016020809104026020016040519081016040528092919081815260200182805460018160011615610100020316600290048015610a415780601f10610a1657610100808354040283529160200191610a41565b820191906000526020600020905b815481529060010190602001808311610a2457829003601f168201915b50505050508152602001848152506000808781526020019081526020016000206000820151816000019080519060200190610a7d929190610daf565b506020820151816001019080519060200190610a9a929190610daf565b506040820151816002019080519060200190610ab7929190610e2f565b509050505b5050505050565b6060806060600080858152602001908152602001600020600001600080868152602001908152602001600020600101600080878152602001908152602001600020600201828054600181600116156101000203166002900480601f016020809104026020016040519081016040528092919081815260200182805460018160011615610100020316600290048015610b9c5780601f10610b7157610100808354040283529160200191610b9c565b820191906000526020600020905b815481529060010190602001808311610b7f57829003601f168201915b50505050509250818054600181600116156101000203166002900480601f016020809104026020016040519081016040528092919081815260200182805460018160011615610100020316600290048015610c385780601f10610c0d57610100808354040283529160200191610c38565b820191906000526020600020905b815481529060010190602001808311610c1b57829003601f168201915b50505050509150808054600181600116156101000203166002900480601f016020809104026020016040519081016040528092919081815260200182805460018160011615610100020316600290048015610cd45780601f10610ca957610100808354040283529160200191610cd4565b820191906000526020600020905b815481529060010190602001808311610cb757829003601f168201915b505050505090509250925092509193909250565b60008082511415610cfc5760009050610d2a565b8180519060200120600190046c01000000000000000000000000026c01000000000000000000000000900490505b919050565b828054600181600116156101000203166002900490600052602060002090601f016020900481019282601f10610d7057805160ff1916838001178555610d9e565b82800160010185558215610d9e579182015b82811115610d9d578251825591602001919060010190610d82565b5b509050610dab9190610eaf565b5090565b828054600181600116156101000203166002900490600052602060002090601f016020900481019282601f10610df057805160ff1916838001178555610e1e565b82800160010185558215610e1e579182015b82811115610e1d578251825591602001919060010190610e02565b5b509050610e2b9190610eaf565b5090565b828054600181600116156101000203166002900490600052602060002090601f016020900481019282601f10610e7057805160ff1916838001178555610e9e565b82800160010185558215610e9e579182015b82811115610e9d578251825591602001919060010190610e82565b5b509050610eab9190610eaf565b5090565b610ed191905b80821115610ecd576000816000905550600101610eb5565b5090565b9056fea265627a7a723058204f786273b51ae0fa5b26d536870b83cc40ac4f1ef7bbdf77a822f0a138ff248d64736f6c634300050a0032",
  "source": "pragma solidity ^0.5.1;\n\ncontract Registry {\n\n    struct Record {\n        bytes owner;\n        bytes recovery;\n        string servicesHash;\n    }\n\n    mapping(bytes32 => Record) private didRegistry;\n\n    modifier onlyOwnerWithoutRecovery(bytes32 did) {\n        address ownerAddress = pubKeyToAddress(didRegistry[did].owner);\n        if (msg.sender != ownerAddress)\n            revert(\"Sender is not authorized.\");\n        if (didRegistry[did].recovery.length != 0)\n            revert(\"Recovery can not be changed.\");\n        _;\n    }\n\n    function setIdentity(bytes32 did, bytes memory owner, string memory servicesHash) public {\n        address ownerAddress = pubKeyToAddress(didRegistry[did].owner);\n        address recoveryAddress = pubKeyToAddress(didRegistry[did].recovery);\n        if (ownerAddress != address(0)) {\n            if (msg.sender != recoveryAddress && msg.sender != ownerAddress) {\n                revert(\"Sender is not authorized.\");\n            }\n        }\n        if (msg.sender == recoveryAddress) {\n            didRegistry[did] = Record(owner, \"\", servicesHash);\n        } else {\n            didRegistry[did] = Record(owner, didRegistry[did].recovery, servicesHash);\n        }\n    }\n\n    function setRecovery(bytes32 did, bytes memory recovery) public onlyOwnerWithoutRecovery(did) {\n        Record storage record = didRegistry[did];\n        record.recovery = recovery;\n    }\n\n    function getIdentity(bytes32 did) public view returns (bytes memory, bytes memory, string memory) {\n        return (didRegistry[did].owner, didRegistry[did].recovery, didRegistry[did].servicesHash);\n    }\n\n    function pubKeyToAddress(bytes memory publicKey) internal pure returns (address) {\n        if (publicKey.length == 0)\n            return address(0);\n        return address(bytes20(uint160(uint256(keccak256(publicKey)))));\n    }\n\n}\n",
  "sourcePath": "/home/volker/Projects/registry-contract/contracts/Registry.sol",
  "compiler": {
    "name": "solc",
    "version": "0.5.10+commit.5a6ea5b1.Emscripten.clang"
  },
  "schemaVersion": "3.0.9",
  "updatedAt": "2019-06-26T11:40:39.659Z",
  "devdoc": {
    "methods": {}
  },
  "userdoc": {
    "methods": {}
  }
}