{
  "contractName": "Registry",
  "abi": [
    {
      "inputs": [],
      "payable": false,
      "stateMutability": "nonpayable",
      "type": "constructor"
    },
    {
      "constant": false,
      "inputs": [
        {
          "name": "did",
          "type": "bytes32"
        },
        {
          "name": "newHash",
          "type": "string"
        }
      ],
      "name": "setRecord",
      "outputs": [],
      "payable": false,
      "stateMutability": "nonpayable",
      "type": "function"
    },
    {
      "constant": false,
      "inputs": [
        {
          "name": "did",
          "type": "bytes32"
        },
        {
          "name": "newOwner",
          "type": "address"
        },
        {
          "name": "newHash",
          "type": "string"
        }
      ],
      "name": "changeOwner",
      "outputs": [],
      "payable": false,
      "stateMutability": "nonpayable",
      "type": "function"
    },
    {
      "constant": false,
      "inputs": [
        {
          "name": "did",
          "type": "bytes32"
        },
        {
          "name": "recoveryAddress",
          "type": "address"
        }
      ],
      "name": "setRecovery",
      "outputs": [],
      "payable": false,
      "stateMutability": "nonpayable",
      "type": "function"
    },
    {
      "constant": true,
      "inputs": [
        {
          "name": "did",
          "type": "bytes32"
        }
      ],
      "name": "getRecord",
      "outputs": [
        {
          "name": "",
          "type": "string"
        }
      ],
      "payable": false,
      "stateMutability": "view",
      "type": "function"
    },
    {
      "constant": true,
      "inputs": [
        {
          "name": "did",
          "type": "bytes32"
        }
      ],
      "name": "getRecoveryAddress",
      "outputs": [
        {
          "name": "",
          "type": "address"
        }
      ],
      "payable": false,
      "stateMutability": "view",
      "type": "function"
    },
    {
      "constant": true,
      "inputs": [
        {
          "name": "did",
          "type": "bytes32"
        }
      ],
      "name": "getOwner",
      "outputs": [
        {
          "name": "",
          "type": "address"
        }
      ],
      "payable": false,
      "stateMutability": "view",
      "type": "function"
    }
  ],
  "bytecode": "0x608060405234801561001057600080fd5b5033600160006101000a81548173ffffffffffffffffffffffffffffffffffffffff021916908373ffffffffffffffffffffffffffffffffffffffff160217905550611017806100616000396000f300608060405260043610610078576000357c0100000000000000000000000000000000000000000000000000000000900463ffffffff168063213681cd1461007d57806335c1229d146101275780635ab5ee371461019857806390906c831461020f578063c669409e146102a6578063deb931a2146102f7575b600080fd5b34801561008957600080fd5b506100ac6004803603810190808035600019169060200190929190505050610368565b6040518080602001828103825283818151815260200191508051906020019080838360005b838110156100ec5780820151818401526020810190506100d1565b50505050905090810190601f1680156101195780820380516001836020036101000a031916815260200191505b509250505060405180910390f35b34801561013357600080fd5b506101566004803603810190808035600019169060200190929190505050610427565b604051808273ffffffffffffffffffffffffffffffffffffffff1673ffffffffffffffffffffffffffffffffffffffff16815260200191505060405180910390f35b3480156101a457600080fd5b5061020d6004803603810190808035600019169060200190929190803590602001908201803590602001908080601f016020809104026020016040519081016040528093929190818152602001838380828437820191505050505050919291929050505061046e565b005b34801561021b57600080fd5b506102a46004803603810190808035600019169060200190929190803573ffffffffffffffffffffffffffffffffffffffff169060200190929190803590602001908201803590602001908080601f01602080910402602001604051908101604052809392919081815260200183838082843782019150505050505091929192905050506107a4565b005b3480156102b257600080fd5b506102f56004803603810190808035600019169060200190929190803573ffffffffffffffffffffffffffffffffffffffff169060200190929190505050610a42565b005b34801561030357600080fd5b506103266004803603810190808035600019169060200190929190505050610eff565b604051808273ffffffffffffffffffffffffffffffffffffffff1673ffffffffffffffffffffffffffffffffffffffff16815260200191505060405180910390f35b606060008083600019166000191681526020019081526020016000206001018054600181600116156101000203166002900480601f01602080910402602001604051908101604052809291908181526020018280546001816001161561010002031660029004801561041b5780601f106103f05761010080835404028352916020019161041b565b820191906000526020600020905b8154815290600101906020018083116103fe57829003601f168201915b50505050509050919050565b6000806000836000191660001916815260200190815260200160002060020160009054906101000a900473ffffffffffffffffffffffffffffffffffffffff169050919050565b6060600080600085600019166000191681526020019081526020016000206001018054600181600116156101000203166002900480601f0160208091040260200160405190810160405280929190818152602001828054600181600116156101000203166002900480156105235780601f106104f857610100808354040283529160200191610523565b820191906000526020600020905b81548152906001019060200180831161050657829003601f168201915b5050505050915060008251141580156105a557503373ffffffffffffffffffffffffffffffffffffffff16600080866000191660001916815260200190815260200160002060000160009054906101000a900473ffffffffffffffffffffffffffffffffffffffff1673ffffffffffffffffffffffffffffffffffffffff1614155b1561063e576040517f08c379a00000000000000000000000000000000000000000000000000000000081526004018080602001828103825260318152602001807f44494420726567697374726174696f6e206661696c65642e20496e76616c696481526020017f204449442070726976617465206b65792e00000000000000000000000000000081525060400191505060405180910390fd5b600090506000825114151561068e57600080856000191660001916815260200190815260200160002060020160009054906101000a900473ffffffffffffffffffffffffffffffffffffffff1690505b6060604051908101604052803373ffffffffffffffffffffffffffffffffffffffff1681526020018481526020018273ffffffffffffffffffffffffffffffffffffffff16815250600080866000191660001916815260200190815260200160002060008201518160000160006101000a81548173ffffffffffffffffffffffffffffffffffffffff021916908373ffffffffffffffffffffffffffffffffffffffff1602179055506020820151816001019080519060200190610753929190610f46565b5060408201518160020160006101000a81548173ffffffffffffffffffffffffffffffffffffffff021916908373ffffffffffffffffffffffffffffffffffffffff16021790555090505050505050565b60008060008560001916600019168152602001908152602001600020600101805460018160011615610100020316600290049050141561084c576040517f08c379a00000000000000000000000000000000000000000000000000000000081526004018080602001828103825260158152602001807f444944206973206e6f742072656769737465726564000000000000000000000081525060200191505060405180910390fd5b3373ffffffffffffffffffffffffffffffffffffffff16600080856000191660001916815260200190815260200160002060020160009054906101000a900473ffffffffffffffffffffffffffffffffffffffff1673ffffffffffffffffffffffffffffffffffffffff1614151561092c576040517f08c379a000000000000000000000000000000000000000000000000000000000815260040180806020018281038252601c8152602001807f496e76616c6964207265636f766572792070726976617465206b65790000000081525060200191505060405180910390fd5b6060604051908101604052808373ffffffffffffffffffffffffffffffffffffffff168152602001828152602001600073ffffffffffffffffffffffffffffffffffffffff16815250600080856000191660001916815260200190815260200160002060008201518160000160006101000a81548173ffffffffffffffffffffffffffffffffffffffff021916908373ffffffffffffffffffffffffffffffffffffffff16021790555060208201518160010190805190602001906109f2929190610f46565b5060408201518160020160006101000a81548173ffffffffffffffffffffffffffffffffffffffff021916908373ffffffffffffffffffffffffffffffffffffffff160217905550905050505050565b606060008084600019166000191681526020019081526020016000206001018054600181600116156101000203166002900480601f016020809104026020016040519081016040528092919081815260200182805460018160011615610100020316600290048015610af55780601f10610aca57610100808354040283529160200191610af5565b820191906000526020600020905b815481529060010190602001808311610ad857829003601f168201915b50505050509050600081511415610b74576040517f08c379a00000000000000000000000000000000000000000000000000000000081526004018080602001828103825260168152602001807f444944206973206e6f7420726567697374657265642e0000000000000000000081525060200191505060405180910390fd5b3373ffffffffffffffffffffffffffffffffffffffff16600080856000191660001916815260200190815260200160002060000160009054906101000a900473ffffffffffffffffffffffffffffffffffffffff1673ffffffffffffffffffffffffffffffffffffffff16141515610c54576040517f08c379a00000000000000000000000000000000000000000000000000000000081526004018080602001828103825260188152602001807f496e76616c6964204449442070726976617465206b65792e000000000000000081525060200191505060405180910390fd5b600073ffffffffffffffffffffffffffffffffffffffff16600080856000191660001916815260200190815260200160002060020160009054906101000a900473ffffffffffffffffffffffffffffffffffffffff1673ffffffffffffffffffffffffffffffffffffffff16141515610d35576040517f08c379a000000000000000000000000000000000000000000000000000000000815260040180806020018281038252601f8152602001807f5265636f76657279206164647265737320697320616c7265616479207365740081525060200191505060405180910390fd5b6060604051908101604052803373ffffffffffffffffffffffffffffffffffffffff16815260200160008086600019166000191681526020019081526020016000206001018054600181600116156101000203166002900480601f016020809104026020016040519081016040528092919081815260200182805460018160011615610100020316600290048015610e0e5780601f10610de357610100808354040283529160200191610e0e565b820191906000526020600020905b815481529060010190602001808311610df157829003601f168201915b505050505081526020018373ffffffffffffffffffffffffffffffffffffffff16815250600080856000191660001916815260200190815260200160002060008201518160000160006101000a81548173ffffffffffffffffffffffffffffffffffffffff021916908373ffffffffffffffffffffffffffffffffffffffff1602179055506020820151816001019080519060200190610eaf929190610f46565b5060408201518160020160006101000a81548173ffffffffffffffffffffffffffffffffffffffff021916908373ffffffffffffffffffffffffffffffffffffffff160217905550905050505050565b6000806000836000191660001916815260200190815260200160002060000160009054906101000a900473ffffffffffffffffffffffffffffffffffffffff169050919050565b828054600181600116156101000203166002900490600052602060002090601f016020900481019282601f10610f8757805160ff1916838001178555610fb5565b82800160010185558215610fb5579182015b82811115610fb4578251825591602001919060010190610f99565b5b509050610fc29190610fc6565b5090565b610fe891905b80821115610fe4576000816000905550600101610fcc565b5090565b905600a165627a7a72305820ab761083972d35951721d84927ba799681ecf44bf56a9df92aa40ef6b1f283160029",
  "source": "pragma solidity 0.4.24;\n\ncontract Registry {\n\n    struct Record {\n        address owner;\n        string ddoHash;\n        address recovery;\n    }\n\n    mapping (bytes32 => Record) private didToHash;\n\n    address private owner;\n\n    constructor() public {\n        owner = msg.sender;\n    }\n\n    function setRecord(bytes32 did, string memory newHash) public {\n        bytes memory emptyTest = bytes(didToHash[did].ddoHash);\n        if (emptyTest.length != 0 && didToHash[did].owner != msg.sender) {\n            revert(\"DID registration failed. Invalid DID private key.\");\n        }\n        address recovery = address(0);\n        if(emptyTest.length != 0){\n            recovery = didToHash[did].recovery;\n        }\n\n        didToHash[did] = Record(msg.sender, newHash, recovery);\n    }\n\n    function changeOwner(bytes32 did, address newOwner, string memory newHash) public {\n        if (bytes(didToHash[did].ddoHash).length == 0){\n            revert(\"DID is not registered\");\n        }\n        if (didToHash[did].recovery != msg.sender){\n            revert(\"Invalid recovery private key\");\n        }\n\n        didToHash[did] = Record(newOwner, newHash, address(0));\n    }\n\n    function setRecovery(bytes32 did, address recoveryAddress) public {\n        bytes memory emptyTest = bytes(didToHash[did].ddoHash);\n        if (emptyTest.length == 0) {\n            revert(\"DID is not registered.\");\n        }\n        if (didToHash[did].owner != msg.sender) {\n            revert(\"Invalid DID private key.\");\n        }\n        if (didToHash[did].recovery != address(0)){\n            revert(\"Recovery address is already set\");\n        }\n        didToHash[did] = Record(msg.sender, didToHash[did].ddoHash, recoveryAddress);\n    }\n\n    function getRecord(bytes32 did) public view returns (string memory) {\n        return didToHash[did].ddoHash;\n    }\n\n    // TODO remove\n    function getRecoveryAddress(bytes32 did) public view returns (address){\n        return didToHash[did].recovery;\n    }\n\n    // TODO remove\n    function getOwner(bytes32 did) public view returns(address){\n        return didToHash[did].owner;\n    }\n\n}\n",
  "sourcePath": "/home/volker/Projects/registry-contract/contracts/Registry.sol",
  "compiler": {
    "name": "solc",
    "version": "0.4.24+commit.e67f0147.Emscripten.clang"
  },
  "schemaVersion": "2.0.1",
  "updatedAt": "2019-05-03T11:50:00.353Z"
}