{
  "contractName": "Registry",
  "abi": [
    {
      "inputs": [],
      "payable": false,
      "stateMutability": "nonpayable",
      "type": "constructor"
    },
    {
      "constant": false,
      "inputs": [
        {
          "name": "did",
          "type": "bytes32"
        },
        {
          "name": "newHash",
          "type": "string"
        }
      ],
      "name": "setRecord",
      "outputs": [],
      "payable": false,
      "stateMutability": "nonpayable",
      "type": "function"
    },
    {
      "constant": false,
      "inputs": [
        {
          "name": "did",
          "type": "bytes32"
        },
        {
          "name": "newOwner",
          "type": "address"
        },
        {
          "name": "newHash",
          "type": "string"
        }
      ],
      "name": "changeOwner",
      "outputs": [
        {
          "name": "",
          "type": "string"
        }
      ],
      "payable": false,
      "stateMutability": "nonpayable",
      "type": "function"
    },
    {
      "constant": false,
      "inputs": [
        {
          "name": "did",
          "type": "bytes32"
        },
        {
          "name": "recoveryAddress",
          "type": "address"
        }
      ],
      "name": "setRecovery",
      "outputs": [],
      "payable": false,
      "stateMutability": "nonpayable",
      "type": "function"
    },
    {
      "constant": true,
      "inputs": [
        {
          "name": "did",
          "type": "bytes32"
        }
      ],
      "name": "getRecord",
      "outputs": [
        {
          "name": "",
          "type": "string"
        }
      ],
      "payable": false,
      "stateMutability": "view",
      "type": "function"
    },
    {
      "constant": true,
      "inputs": [
        {
          "name": "did",
          "type": "bytes32"
        }
      ],
      "name": "getRecoveryAddress",
      "outputs": [
        {
          "name": "",
          "type": "address"
        }
      ],
      "payable": false,
      "stateMutability": "view",
      "type": "function"
    },
    {
      "constant": true,
      "inputs": [
        {
          "name": "did",
          "type": "bytes32"
        }
      ],
      "name": "getOwner",
      "outputs": [
        {
          "name": "",
          "type": "address"
        }
      ],
      "payable": false,
      "stateMutability": "view",
      "type": "function"
    }
  ],
  "bytecode": "0x608060405234801561001057600080fd5b5033600160006101000a81548173ffffffffffffffffffffffffffffffffffffffff021916908373ffffffffffffffffffffffffffffffffffffffff160217905550610f51806100616000396000f3fe608060405234801561001057600080fd5b506004361061007f576000357c010000000000000000000000000000000000000000000000000000000090048063213681cd1461008457806335c1229d1461012b5780635ab5ee371461019957806390906c831461025e578063c669409e14610343578063deb931a214610391575b600080fd5b6100b06004803603602081101561009a57600080fd5b81019080803590602001909291905050506103ff565b6040518080602001828103825283818151815260200191508051906020019080838360005b838110156100f05780820151818401526020810190506100d5565b50505050905090810190601f16801561011d5780820380516001836020036101000a031916815260200191505b509250505060405180910390f35b6101576004803603602081101561014157600080fd5b81019080803590602001909291905050506104b6565b604051808273ffffffffffffffffffffffffffffffffffffffff1673ffffffffffffffffffffffffffffffffffffffff16815260200191505060405180910390f35b61025c600480360360408110156101af57600080fd5b8101908080359060200190929190803590602001906401000000008111156101d657600080fd5b8201836020820111156101e857600080fd5b8035906020019184600183028401116401000000008311171561020a57600080fd5b91908080601f016020809104026020016040519081016040528093929190818152602001838380828437600081840152601f19601f8201169050808301925050505050505091929192905050506104f5565b005b6103416004803603606081101561027457600080fd5b8101908080359060200190929190803573ffffffffffffffffffffffffffffffffffffffff169060200190929190803590602001906401000000008111156102bb57600080fd5b8201836020820111156102cd57600080fd5b803590602001918460018302840111640100000000831117156102ef57600080fd5b91908080601f016020809104026020016040519081016040528093929190818152602001838380828437600081840152601f19601f8201169050808301925050505050505091929192905050506107c4565b005b61038f6004803603604081101561035957600080fd5b8101908080359060200190929190803573ffffffffffffffffffffffffffffffffffffffff169060200190929190505050610a47565b005b6103bd600480360360208110156103a757600080fd5b8101908080359060200190929190505050610e10565b604051808273ffffffffffffffffffffffffffffffffffffffff1673ffffffffffffffffffffffffffffffffffffffff16815260200191505060405180910390f35b60606000808381526020019081526020016000206001018054600181600116156101000203166002900480601f0160208091040260200160405190810160405280929190818152602001828054600181600116156101000203166002900480156104aa5780601f1061047f576101008083540402835291602001916104aa565b820191906000526020600020905b81548152906001019060200180831161048d57829003601f168201915b50505050509050919050565b600080600083815260200190815260200160002060020160009054906101000a900473ffffffffffffffffffffffffffffffffffffffff169050919050565b60606000808481526020019081526020016000206001018054600181600116156101000203166002900480601f0160208091040260200160405190810160405280929190818152602001828054600181600116156101000203166002900480156105a05780601f10610575576101008083540402835291602001916105a0565b820191906000526020600020905b81548152906001019060200180831161058357829003601f168201915b50505050509050600081511415801561061a57503373ffffffffffffffffffffffffffffffffffffffff1660008085815260200190815260200160002060000160009054906101000a900473ffffffffffffffffffffffffffffffffffffffff1673ffffffffffffffffffffffffffffffffffffffff1614155b15610670576040517f08c379a0000000000000000000000000000000000000000000000000000000008152600401808060200182810382526031815260200180610ef56031913960400191505060405180910390fd5b600080905060008251146106b75760008085815260200190815260200160002060020160009054906101000a900473ffffffffffffffffffffffffffffffffffffffff1690505b60405180606001604052803373ffffffffffffffffffffffffffffffffffffffff1681526020018481526020018273ffffffffffffffffffffffffffffffffffffffff1681525060008086815260200190815260200160002060008201518160000160006101000a81548173ffffffffffffffffffffffffffffffffffffffff021916908373ffffffffffffffffffffffffffffffffffffffff1602179055506020820151816001019080519060200190610773929190610e4f565b5060408201518160020160006101000a81548173ffffffffffffffffffffffffffffffffffffffff021916908373ffffffffffffffffffffffffffffffffffffffff16021790555090505050505050565b60008060008581526020019081526020016000206001018054600181600116156101000203166002900490501415610864576040517f08c379a00000000000000000000000000000000000000000000000000000000081526004018080602001828103825260158152602001807f444944206973206e6f742072656769737465726564000000000000000000000081525060200191505060405180910390fd5b3373ffffffffffffffffffffffffffffffffffffffff1660008085815260200190815260200160002060020160009054906101000a900473ffffffffffffffffffffffffffffffffffffffff1673ffffffffffffffffffffffffffffffffffffffff161461093a576040517f08c379a000000000000000000000000000000000000000000000000000000000815260040180806020018281038252601c8152602001807f496e76616c6964207265636f766572792070726976617465206b65790000000081525060200191505060405180910390fd5b60405180606001604052808373ffffffffffffffffffffffffffffffffffffffff168152602001828152602001600073ffffffffffffffffffffffffffffffffffffffff1681525060008085815260200190815260200160002060008201518160000160006101000a81548173ffffffffffffffffffffffffffffffffffffffff021916908373ffffffffffffffffffffffffffffffffffffffff16021790555060208201518160010190805190602001906109f7929190610e4f565b5060408201518160020160006101000a81548173ffffffffffffffffffffffffffffffffffffffff021916908373ffffffffffffffffffffffffffffffffffffffff160217905550905050505050565b60606000808481526020019081526020016000206001018054600181600116156101000203166002900480601f016020809104026020016040519081016040528092919081815260200182805460018160011615610100020316600290048015610af25780601f10610ac757610100808354040283529160200191610af2565b820191906000526020600020905b815481529060010190602001808311610ad557829003601f168201915b50505050509050600081511415610b71576040517f08c379a00000000000000000000000000000000000000000000000000000000081526004018080602001828103825260168152602001807f444944206973206e6f7420726567697374657265642e0000000000000000000081525060200191505060405180910390fd5b6000815114158015610be457503373ffffffffffffffffffffffffffffffffffffffff1660008085815260200190815260200160002060000160009054906101000a900473ffffffffffffffffffffffffffffffffffffffff1673ffffffffffffffffffffffffffffffffffffffff1614155b15610c57576040517f08c379a00000000000000000000000000000000000000000000000000000000081526004018080602001828103825260188152602001807f496e76616c6964204449442070726976617465206b65792e000000000000000081525060200191505060405180910390fd5b60405180606001604052803373ffffffffffffffffffffffffffffffffffffffff1681526020016000808681526020019081526020016000206001018054600181600116156101000203166002900480601f016020809104026020016040519081016040528092919081815260200182805460018160011615610100020316600290048015610d275780601f10610cfc57610100808354040283529160200191610d27565b820191906000526020600020905b815481529060010190602001808311610d0a57829003601f168201915b505050505081526020018373ffffffffffffffffffffffffffffffffffffffff1681525060008085815260200190815260200160002060008201518160000160006101000a81548173ffffffffffffffffffffffffffffffffffffffff021916908373ffffffffffffffffffffffffffffffffffffffff1602179055506020820151816001019080519060200190610dc0929190610e4f565b5060408201518160020160006101000a81548173ffffffffffffffffffffffffffffffffffffffff021916908373ffffffffffffffffffffffffffffffffffffffff160217905550905050505050565b600080600083815260200190815260200160002060000160009054906101000a900473ffffffffffffffffffffffffffffffffffffffff169050919050565b828054600181600116156101000203166002900490600052602060002090601f016020900481019282601f10610e9057805160ff1916838001178555610ebe565b82800160010185558215610ebe579182015b82811115610ebd578251825591602001919060010190610ea2565b5b509050610ecb9190610ecf565b5090565b610ef191905b80821115610eed576000816000905550600101610ed5565b5090565b9056fe44494420726567697374726174696f6e206661696c65642e20496e76616c6964204449442070726976617465206b65792ea165627a7a72305820a366d16bd8ea045fdd0ed7d1d9bb6549d2c396d5ffe91ed2c6d027aa7c3850a30029",
  "source": "pragma solidity 0.5.7;\n\ncontract Registry {\n\n    struct Record {\n        address owner;\n        string ddoHash;\n        address recovery;\n    }\n\n    mapping (bytes32 => Record) private didToHash;\n\n    address private owner;\n\n    constructor() public {\n        owner = msg.sender;\n    }\n\n    function setRecord(bytes32 did, string memory newHash) public {\n        bytes memory emptyTest = bytes(didToHash[did].ddoHash);\n        if (emptyTest.length != 0 && didToHash[did].owner != msg.sender) {\n            revert(\"DID registration failed. Invalid DID private key.\");\n        }\n        address recovery = address(0);\n        if(emptyTest.length != 0){\n            recovery = didToHash[did].recovery;\n        }\n\n        didToHash[did] = Record(msg.sender, newHash, recovery);\n    }\n\n    function changeOwner(bytes32 did, address newOwner, string memory newHash) public {\n        if (bytes(didToHash[did].ddoHash).length == 0){\n            revert(\"DID is not registered\");\n        }\n        if (didToHash[did].recovery != msg.sender){\n            revert(\"Invalid recovery private key\");\n        }\n\n        didToHash[did] = Record(newOwner, newHash, address(0));\n    }\n\n    function setRecovery(bytes32 did, address recoveryAddress) public {\n        bytes memory emptyTest = bytes(didToHash[did].ddoHash);\n        if (emptyTest.length == 0) {\n            revert(\"DID is not registered.\");\n        }\n        if (emptyTest.length != 0 && didToHash[did].owner != msg.sender) {\n            revert(\"Invalid DID private key.\");\n        }\n        didToHash[did] = Record(msg.sender, didToHash[did].ddoHash, recoveryAddress);\n    }\n\n    function getRecord(bytes32 did) public view returns (string memory) {\n        return didToHash[did].ddoHash;\n    }\n\n    // TODO remove\n    function getRecoveryAddress(bytes32 did) public view returns (address){\n        return didToHash[did].recovery;\n    }\n\n    // TODO remove\n    function getOwner(bytes32 did) public view returns(address){\n        return didToHash[did].owner;\n    }\n\n}\n",
  "sourcePath": "/home/volker/Projects/registry-contract/contracts/Registry.sol",
  "compiler": {
    "name": "solc",
    "version": "0.5.7+commit.6da8b019.Emscripten.clang"
  },
  "schemaVersion": "3.0.8",
  "updatedAt": "2019-04-30T10:31:15.853Z",
  "devdoc": {
    "methods": {}
  },
  "userdoc": {
    "methods": {}
  }
}